{
  "contractName": "Ballot",
  "abi": [
    {
      "inputs": [],
      "stateMutability": "nonpayable",
      "type": "constructor"
    },
    {
      "inputs": [
        {
          "internalType": "uint256",
          "name": "",
          "type": "uint256"
        }
      ],
      "name": "candidateList",
      "outputs": [
        {
          "internalType": "string",
          "name": "",
          "type": "string"
        }
      ],
      "stateMutability": "view",
      "type": "function",
      "constant": true
    },
    {
      "inputs": [
        {
          "internalType": "string",
          "name": "",
          "type": "string"
        }
      ],
      "name": "candidates",
      "outputs": [
        {
          "internalType": "string",
          "name": "name",
          "type": "string"
        },
        {
          "internalType": "string",
          "name": "party",
          "type": "string"
        },
        {
          "internalType": "uint256",
          "name": "voteCount",
          "type": "uint256"
        }
      ],
      "stateMutability": "view",
      "type": "function",
      "constant": true
    },
    {
      "inputs": [],
      "name": "presidingOfficer",
      "outputs": [
        {
          "internalType": "address",
          "name": "",
          "type": "address"
        }
      ],
      "stateMutability": "view",
      "type": "function",
      "constant": true
    },
    {
      "inputs": [
        {
          "internalType": "address",
          "name": "",
          "type": "address"
        }
      ],
      "name": "voters",
      "outputs": [
        {
          "internalType": "bool",
          "name": "voted",
          "type": "bool"
        }
      ],
      "stateMutability": "view",
      "type": "function",
      "constant": true
    },
    {
      "inputs": [
        {
          "internalType": "string",
          "name": "name",
          "type": "string"
        },
        {
          "internalType": "string",
          "name": "party",
          "type": "string"
        }
      ],
      "name": "enrollCandidate",
      "outputs": [],
      "stateMutability": "nonpayable",
      "type": "function"
    },
    {
      "inputs": [
        {
          "internalType": "string",
          "name": "candidateName",
          "type": "string"
        }
      ],
      "name": "castVote",
      "outputs": [],
      "stateMutability": "nonpayable",
      "type": "function"
    },
    {
      "inputs": [],
      "name": "closeBallot",
      "outputs": [
        {
          "internalType": "string",
          "name": "",
          "type": "string"
        }
      ],
      "stateMutability": "nonpayable",
      "type": "function"
    },
    {
      "inputs": [],
      "name": "getResult",
      "outputs": [
        {
          "internalType": "string",
          "name": "",
          "type": "string"
        }
      ],
      "stateMutability": "view",
      "type": "function",
      "constant": true
    }
  ],
  "bytecode": "0x608060405260016000806101000a81548160ff02191690831515021790555034801561002a57600080fd5b5033600060016101000a81548173ffffffffffffffffffffffffffffffffffffffff021916908373ffffffffffffffffffffffffffffffffffffffff1602179055506115a68061007b6000396000f3fe608060405234801561001057600080fd5b50600436106100885760003560e01c8063b13c744b1161005b578063b13c744b14610377578063c5539cc21461041e578063de292789146105c5578063efe1e3cb1461064857610088565b80639cc2d9931461008d578063a3ec138d14610148578063a97b8b4d146101a2578063ae29e5d314610225575b600080fd5b610146600480360360208110156100a357600080fd5b81019080803590602001906401000000008111156100c057600080fd5b8201836020820111156100d257600080fd5b803590602001918460018302840111640100000000831117156100f457600080fd5b91908080601f016020809104026020016040519081016040528093929190818152602001838380828437600081840152601f19601f82011690508083019250505050505050919291929050505061067c565b005b61018a6004803603602081101561015e57600080fd5b81019080803573ffffffffffffffffffffffffffffffffffffffff16906020019092919050505061099c565b60405180821515815260200191505060405180910390f35b6101aa6109c7565b6040518080602001828103825283818151815260200191508051906020019080838360005b838110156101ea5780820151818401526020810190506101cf565b50505050905090810190601f1680156102175780820380516001836020036101000a031916815260200191505b509250505060405180910390f35b6103756004803603604081101561023b57600080fd5b810190808035906020019064010000000081111561025857600080fd5b82018360208201111561026a57600080fd5b8035906020019184600183028401116401000000008311171561028c57600080fd5b91908080601f016020809104026020016040519081016040528093929190818152602001838380828437600081840152601f19601f820116905080830192505050505050509192919290803590602001906401000000008111156102ef57600080fd5b82018360208201111561030157600080fd5b8035906020019184600183028401116401000000008311171561032357600080fd5b91908080601f016020809104026020016040519081016040528093929190818152602001838380828437600081840152601f19601f820116905080830192505050505050509192919290505050610ddd565b005b6103a36004803603602081101561038d57600080fd5b810190808035906020019092919050505061110c565b6040518080602001828103825283818151815260200191508051906020019080838360005b838110156103e35780820151818401526020810190506103c8565b50505050905090810190601f1680156104105780820380516001836020036101000a031916815260200191505b509250505060405180910390f35b6104d76004803603602081101561043457600080fd5b810190808035906020019064010000000081111561045157600080fd5b82018360208201111561046357600080fd5b8035906020019184600183028401116401000000008311171561048557600080fd5b91908080601f016020809104026020016040519081016040528093929190818152602001838380828437600081840152601f19601f8201169050808301925050505050505091929192905050506111c5565b604051808060200180602001848152602001838103835286818151815260200191508051906020019080838360005b83811015610521578082015181840152602081019050610506565b50505050905090810190601f16801561054e5780820380516001836020036101000a031916815260200191505b50838103825285818151815260200191508051906020019080838360005b8381101561058757808201518184015260208101905061056c565b50505050905090810190601f1680156105b45780820380516001836020036101000a031916815260200191505b509550505050505060405180910390f35b6105cd611335565b6040518080602001828103825283818151815260200191508051906020019080838360005b8381101561060d5780820151818401526020810190506105f2565b50505050905090810190601f16801561063a5780820380516001836020036101000a031916815260200191505b509250505060405180910390f35b6106506113d7565b604051808273ffffffffffffffffffffffffffffffffffffffff16815260200191505060405180910390f35b6001151560008054906101000a900460ff16151514610703576040517f08c379a00000000000000000000000000000000000000000000000000000000081526004018080602001828103825260178152602001807f42616c6c6f74206e6f206c6f6e6765722061637469766500000000000000000081525060200191505060405180910390fd5b60001515600260003373ffffffffffffffffffffffffffffffffffffffff1673ffffffffffffffffffffffffffffffffffffffff16815260200190815260200160002060000160009054906101000a900460ff161515146107cc576040517f08c379a000000000000000000000000000000000000000000000000000000000815260040180806020018281038252600e8152602001807f416c726561647920766f7465642100000000000000000000000000000000000081525060200191505060405180910390fd5b60006003826040518082805190602001908083835b6020831061080457805182526020820191506020810190506020830392506107e1565b6001836020036101000a038019825116818451168082178552505050505050905001915050908152602001604051809103902060000180546001816001161561010002031660029004905014156108c3576040517f08c379a00000000000000000000000000000000000000000000000000000000081526004018080602001828103825260188152602001807f43616e64696461746520646f6573206e6f74206578697374000000000000000081525060200191505060405180910390fd5b60016003826040518082805190602001908083835b602083106108fb57805182526020820191506020810190506020830392506108d8565b6001836020036101000a0380198251168184511680821785525050505050509050019150509081526020016040518091039020600201600082825401925050819055506001600260003373ffffffffffffffffffffffffffffffffffffffff1673ffffffffffffffffffffffffffffffffffffffff16815260200190815260200160002060000160006101000a81548160ff02191690831515021790555050565b60026020528060005260406000206000915090508060000160009054906101000a900460ff16905081565b6060600060019054906101000a900473ffffffffffffffffffffffffffffffffffffffff1673ffffffffffffffffffffffffffffffffffffffff163373ffffffffffffffffffffffffffffffffffffffff1614610a6f576040517f08c379a000000000000000000000000000000000000000000000000000000000815260040180806020018281038252602e815260200180611543602e913960400191505060405180910390fd5b6001151560008054906101000a900460ff16151514610af6576040517f08c379a00000000000000000000000000000000000000000000000000000000081526004018080602001828103825260178152602001807f42616c6c6f74206e6f206c6f6e6765722061637469766500000000000000000081525060200191505060405180910390fd5b6000606060405180602001604052806000815250905060005b600480549050811015610d2f57610b246113fd565b600360048381548110610b3357fe5b906000526020600020016040518082805460018160011615610100020316600290048015610b985780601f10610b76576101008083540402835291820191610b98565b820191906000526020600020905b815481529060010190602001808311610b84575b50509150509081526020016040518091039020604051806060016040529081600082018054600181600116156101000203166002900480601f016020809104026020016040519081016040528092919081815260200182805460018160011615610100020316600290048015610c4f5780601f10610c2457610100808354040283529160200191610c4f565b820191906000526020600020905b815481529060010190602001808311610c3257829003601f168201915b50505050508152602001600182018054600181600116156101000203166002900480601f016020809104026020016040519081016040528092919081815260200182805460018160011615610100020316600290048015610cf15780601f10610cc657610100808354040283529160200191610cf1565b820191906000526020600020905b815481529060010190602001808311610cd457829003601f168201915b5050505050815260200160028201548152505090508381604001511115610d215780600001519250806040015193505b508080600101915050610b0f565b5060008060006101000a81548160ff0219169083151502179055506003816040518082805190602001908083835b60208310610d805780518252602082019150602081019050602083039250610d5d565b6001836020036101000a038019825116818451168082178552505050505050905001915050908152602001604051809103902060010160019080546001816001161561010002031660029004610dd792919061141e565b50505090565b600060019054906101000a900473ffffffffffffffffffffffffffffffffffffffff1673ffffffffffffffffffffffffffffffffffffffff163373ffffffffffffffffffffffffffffffffffffffff1614610e83576040517f08c379a000000000000000000000000000000000000000000000000000000000815260040180806020018281038252602e815260200180611543602e913960400191505060405180910390fd5b6001151560008054906101000a900460ff16151514610f0a576040517f08c379a00000000000000000000000000000000000000000000000000000000081526004018080602001828103825260178152602001807f42616c6c6f74206e6f206c6f6e6765722061637469766500000000000000000081525060200191505060405180910390fd5b60006003836040518082805190602001908083835b60208310610f425780518252602082019150602081019050602083039250610f1f565b6001836020036101000a038019825116818451168082178552505050505050905001915050908152602001604051809103902060000180546001816001161561010002031660029004905014611000576040517f08c379a00000000000000000000000000000000000000000000000000000000081526004018080602001828103825260188152602001807f43616e64696461746520616c726561647920657869737473000000000000000081525060200191505060405180910390fd5b604051806060016040528083815260200182815260200160008152506003836040518082805190602001908083835b60208310611052578051825260208201915060208101905060208303925061102f565b6001836020036101000a038019825116818451168082178552505050505050905001915050908152602001604051809103902060008201518160000190805190602001906110a19291906114a5565b5060208201518160010190805190602001906110be9291906114a5565b50604082015181600201559050506004829080600181540180825580915050600190039060005260206000200160009091909190915090805190602001906111079291906114a5565b505050565b6004818154811061111957fe5b906000526020600020016000915090508054600181600116156101000203166002900480601f0160208091040260200160405190810160405280929190818152602001828054600181600116156101000203166002900480156111bd5780601f10611192576101008083540402835291602001916111bd565b820191906000526020600020905b8154815290600101906020018083116111a057829003601f168201915b505050505081565b600381805160208101820180518482526020830160208501208183528095505050505050600091509050806000018054600181600116156101000203166002900480601f0160208091040260200160405190810160405280929190818152602001828054600181600116156101000203166002900480156112875780601f1061125c57610100808354040283529160200191611287565b820191906000526020600020905b81548152906001019060200180831161126a57829003601f168201915b505050505090806001018054600181600116156101000203166002900480601f0160208091040260200160405190810160405280929190818152602001828054600181600116156101000203166002900480156113255780601f106112fa57610100808354040283529160200191611325565b820191906000526020600020905b81548152906001019060200180831161130857829003601f168201915b5050505050908060020154905083565b606060018054600181600116156101000203166002900480601f0160208091040260200160405190810160405280929190818152602001828054600181600116156101000203166002900480156113cd5780601f106113a2576101008083540402835291602001916113cd565b820191906000526020600020905b8154815290600101906020018083116113b057829003601f168201915b5050505050905090565b600060019054906101000a900473ffffffffffffffffffffffffffffffffffffffff1681565b60405180606001604052806060815260200160608152602001600081525090565b828054600181600116156101000203166002900490600052602060002090601f016020900481019282601f106114575780548555611494565b8280016001018555821561149457600052602060002091601f016020900482015b82811115611493578254825591600101919060010190611478565b5b5090506114a19190611525565b5090565b828054600181600116156101000203166002900490600052602060002090601f016020900481019282601f106114e657805160ff1916838001178555611514565b82800160010185558215611514579182015b828111156115135782518255916020019190600101906114f8565b5b5090506115219190611525565b5090565b5b8082111561153e576000816000905550600101611526565b509056fe4f6e6c7920507265736964696e67204f6666696365722063616e20706572666f726d207468697320616374696f6ea2646970667358221220d4488d02e79214976a8aa66111bbc8a35d6fc64b84e2b7a741e22003bc72871064736f6c63430007030033",
  "immutableReferences": {},
  "source": "// SPDX-License-Identifier: GPL-3.0\npragma solidity >=0.6.11 <0.8.0;\n    \n/* \n    Smart contract to represent a ballot. Ballot is owned and managed by a presiding officer.\n    Presiding Officer can enroll candidates. Voters can vote for a candidate using his/her name.\n*/\n\ncontract Ballot {\n    bool _active = true;\n    address public presidingOfficer;\n    string private winningParty;\n    \n    struct Voter {\n        bool voted;\n        // add other data related to voter here\n    }\n    \n    struct Candidate {\n        string name;\n        string party;\n        uint voteCount;\n    }\n    \n    // Data structure to keep track of all voters\n    mapping (address => Voter) public voters;\n    \n    // Data structure to keep track of all candidates\n    mapping (string => Candidate) public candidates;\n    \n    string[] public candidateList;  // List of candidate names\n    \n    modifier restricted() {\n        require(msg.sender == presidingOfficer, \"Only Presiding Officer can perform this action\");\n        _;\n    }\n    \n    modifier isActive() {\n        require(_active == true, 'Ballot no longer active');\n        _;\n    }\n    \n    constructor() {\n        presidingOfficer = msg.sender;\n    }\n        \n    function enrollCandidate(string memory name, string memory party) public restricted isActive {       \n        require(bytes(candidates[name].name).length == 0, 'Candidate already exists');\n        candidates[name] = Candidate({name: name, party: party, voteCount: 0});\n        candidateList.push(name);\n    }\n    \n    function castVote(string memory candidateName) public isActive {\n        require(voters[msg.sender].voted == false, \"Already voted!\");\n        require(bytes(candidates[candidateName].name).length != 0, \"Candidate does not exist\");\n        candidates[candidateName].voteCount += 1;\n        voters[msg.sender].voted = true;\n    }\n    \n    function closeBallot() public restricted isActive returns(string memory) {\n        uint max = 0;\n        string memory winner = '';\n        for(uint i = 0; i < candidateList.length; i++) {\n            Candidate memory current = candidates[candidateList[i]];\n            if (current.voteCount > max) {\n                winner = current.name;\n                max = current.voteCount;\n            }\n            \n        }\n        _active = false;\n        winningParty = candidates[winner].party;\n    }\n    \n    function getResult() public view returns(string memory) {\n        return winningParty;\n    }\n    \n}",
  "sourcePath": "G:/_workspace/voting/contracts/Ballot.sol",
  "compiler": {
    "name": "solc",
    "version": "0.7.3+commit.9bfce1f6.Emscripten.clang"
  },
  "schemaVersion": "3.2.5",
  "updatedAt": "2020-10-11T21:37:52.107Z",
  "networkType": "ethereum",
  "devdoc": {
    "kind": "dev",
    "methods": {},
    "version": 1
  },
  "userdoc": {
    "kind": "user",
    "methods": {},
    "version": 1
  }
}